:1000000000000120A90F0000191000001B100000C3
:100010001D1000001F100000211000000000000053
:10002000000000000000000000000000231000009D
:10003000251000000000000027100000291000001B
:100040002B1000002B1000002B1000002B100000C4
:100050002B1000002B1000002B1000002B100000B4
:100060002B1000002B1000002B1000002B100000A4
:100070002B1000002B1000002B1000002B10000094
:100080002B1000002B1000002B1000002B10000084
:100090002B1000002B1000002B1000002B10000074
:1000A0002B1000002B1000002B1000002B10000064
:1000B0002B1000002B1000000000000000000000CA
:1000C0002B1000002B1000002B1000002B10000044
:1000D0002B1000002B1000002B100000000000006F
:1000E0000000000000000000000000000000000010
:1000F0000000000000000000000000000000000000
:1001000000000000000000000000000000000000EF
:1001100000000000000000000000000000000000DF
:1001200000000000000000000000000000000000CF
:1001300000000000000000000000000000000000BF
:1001400000000000000000000000000000000000AF
:10015000000000000000000000000000000000009F
:10016000000000000000000000000000000000008F
:10017000000000000000000000000000000000007F
:10018000000000000000000000000000000000006F
:10019000000000000000000000000000000000005F
:1001A000000000000000000000000000000000004F
:1001B000000000000000000000000000000000003F
:1001C000000000000000000000000000000000002F
:1001D000000000000000000000000000000000001F
:1001E000000000000000000000000000000000000F
:1001F00000000000000000000000000000000000FF
:100200006B6E6170702031200A000000494E46007C
:10021000696E66004E414E006E616E0030313233C1
:1002200034353637383941424344454600000000F2
:10023000303132333435363738396162636465665C
:1002400000000000286E756C6C2900003000000072
:10025000496E66696E697479000000004E614E0057
:1002600042616C6C6F63207375636365656465647C
:10027000000000002E2E2F2E2E2F2E2E2F2E2E2F52
:100280002E2E2F2E2E2F6E65776C69622F6C696271
:10029000632F7374646C69622F64746F612E6300E2
:1002A0002C2066756E6374696F6E3A200000000042
:1002B000617373657274696F6E20222573222066E4
:1002C00061696C65643A2066696C65202225732239
:1002D0002C206C696E65202564257325730A000047
:1002E0002E2E2F2E2E2F2E2E2F2E2E2F2E2E2F2E29
:1002F0002E2F6E65776C69622F6C6962632F737441
:10030000646C69622F6D707265632E63000000007B
:1003100043000000504F5349580000002E000000D9
:1003200020202020202020202020202020202020CD
:1003300030303030303030303030303030303030BD
:1003400005000000190000007D0000000000000012
:10035000000000000000F03F00000000000024400A
:1003600000000000000059400000000000408F40E5
:10037000000000000088C34000000000006AF84050
:100380000000000080842E4100000000D012634174
:100390000000000084D797410000000065CDCD41EA
:1003A000000000205FA00242000000E876483742CB
:1003B000000000A2941A6D42000040E59C30A24269
:1003C0000000901EC4BCD64200003426F56B0C43DE
:1003D0000080E03779C3414300A0D8855734764385
:1003E00000C84E676DC1AB43003D9160E458E143E6
:1003F000408CB5781DAF154450EFE2D6E41A4B445B
:1004000092D54D06CFF08044F64AE1C7022DB5449F
:10041000B49DD9794378EA44BC89D897B2D29C3C40
:1004200033A7A8D523F649393DA7F444FD0FA532DB
:100430009D978CCF08BA5B25436FAC642806C80A29
:100440000080E03779C34143176E05B5B5B89346D0
:10045000F5F93FE9034F384D321D30F94877825A9C
:100460003CBF737FDD4F1575002020202020202009
:100470002020282828282820202020202020202054
:100480002020202020202020208810101010101064
:1004900010101010101010101004040404040404B0
:1004A000040404101010101010104141414141414A
:1004B000010101010101010101010101010101012C
:1004C000010101011010101010104242424242423C
:1004D00002020202020202020202020202020202FC
:1004E00002020202101010102000000000000000A4
:1004F00000000000000000000000000000000000FC
:1005000000000000000000000000000000000000EB
:1005100000000000000000000000000000000000DB
:1005200000000000000000000000000000000000CB
:1005300000000000000000000000000000000000BB
:1005400000000000000000000000000000000000AB
:10055000000000000000000000000000000000009B
:10056000000000000000000000000000202020200B
:10057000202020202020202020202020303030303B
:0C0580003030303030303030303030302F
:08058C009000000001000000D6
:100594000348044B834202D0034B03B1184770470E
:1005A400B8060020B8060020000000000548064BED
:1005B4001B1AD90F01EBA301491002D0034B03B15D
:1005C40018477047B8060020B80600200000000055
:1005D40010B5064C237843B9FFF7DAFF044B13B187
:1005E4000448AFF300800123237010BDB806002037
:1005F40000000000F075000008B5044B1BB104496D
:100604000448AFF30080BDE80840CFE700000000D5
:10061400BC060020F0750000A3F5803A704700BFC7
:10062400154B002B08BF114B9D46FFF7F5FF00212A
:100634008B460F461148124A121A00F0F5FC0C4B77
:10064400002B00D098470B4B002B00D0984700207C
:10065400002104000D000B4800F06EFD00F036FD93
:100664002000290000F02AF800F058FD00000800DE
:10067400000000000000000000000120B806002077
:10068400E00900209111000080B400AF4FF0A043B6
:100694000C22C3F834274FF0A0430C22C3F83827A8
:1006A4004FF0A0430C22C3F83C274FF0A0430C2288
:1006B400C3F8402700BFBD4680BC704780B582B0F8
:1006C40000AF11237B6010E001227B689A404FF059
:1006D400A043C3F8182501227B689A404FF0A04339
:1006E400C3F80C257B6801337B607B68142BEBDD3E
:1006F400FFF7CAFF00233B604FF0A043D3F8103547
:1007040003F40053002B02D1064800F02BFD42F203
:1007140010733B6000BF3B68013B3B603B68002BB0
:10072400F9D1E9E70002000080B483B000AF1E4BAA
:100734001B68B3F1FF3F0AD11C4B1B68DBB27B6023
:100744001B4B1B681B0903F00F033B6005E0164BB2
:100754001B687B60174B1B683B607B68062B1DD1B5
:100764003B68033B042B17D801A252F823F000BFC7
:10077400890700008D07000091070000950700001D
:100784009907000001230AE0012308E0012306E0A1
:10079400012304E0012302E0012300E000231846C2
:1007A4000C37BD4680BC704730010010E00F00F0EC
:1007B400E80F00F03401001080B483B000AF184B90
:1007C4001B68DBB27B60174B1B681B0903F00F032C
:1007D4003B607B68062B1DD13B68033B042B17D879
:1007E40001A252F823F000BF010800000508000030
:1007F400090800000D0800001108000001230AE0A8
:10080400002308E0002306E0002304E0002302E0C4
:10081400002300E0002318460C37BD4680BC704717
:10082400E00F00F0E80F00F080B483B000AF1E4B7F
:100834001B68B3F1FF3F0AD11C4B1B68DBB27B6022
:100844001B4B1B681B0903F00F033B6005E0164BB1
:100854001B687B60174B1B683B607B68062B1DD1B4
:100864003B68033B042B17D801A252F823F000BFC6
:10087400890800008D080000910800009508000018
:100884009908000001230AE0012308E0012306E09F
:10089400012304E0012302E0012300E000231846C1
:1008A4000C37BD4680BC704730010010E00F00F0EB
:1008B400E80F00F03401001080B483B000AF184B8F
:1008C4001B68DBB27B60174B1B681B0903F00F032B
:1008D4003B607B68062B1DD13B68033B042B17D878
:1008E40001A252F823F000BF01090000050900002D
:1008F400090900000D0900001109000001230AE0A4
:10090400002308E0002306E0002304E0002302E0C3
:10091400002300E0002318460C37BD4680BC704716
:10092400E00F00F0E80F00F080B483B000AF1E4B7E
:100934001B68B3F1FF3F0AD11C4B1B68DBB27B6021
:100944001B4B1B681B0903F00F033B6005E0164BB0
:100954001B687B60174B1B683B607B68062B1DD1B3
:100964003B68033B042B17D801A252F823F000BFC5
:10097400890900008D090000910900009509000013
:100984009909000001230AE0012308E0012306E09D
:10099400012304E0012302E0012300E000231846C0
:1009A4000C37BD4680BC704730010010E00F00F0EA
:1009B400E80F00F03401001080B483B000AF184B8E
:1009C4001B68DBB27B60174B1B681B0903F00F032A
:1009D4003B607B68062B1DD13B68033B042B17D877
:1009E40001A252F823F000BF010A0000050A00002A
:1009F400090A00000D0A0000110A000001230AE0A0
:100A0400002308E0002306E0002304E0002302E0C2
:100A1400002300E0002318460C37BD4680BC704715
:100A2400E00F00F0E80F00F080B483B000AF184B83
:100A34001B68DBB27B60174B1B681B0903F00F03B9
:100A44003B607B68062B1DD13B68033B042B17D806
:100A540001A252F823F000BF710A0000750A0000D9
:100A6400790A00007D0A0000810A000001230AE0DF
:100A7400002308E0002306E0002304E0002302E052
:100A8400002300E0002318460C37BD4680BC7047A5
:100A9400E00F00F0E80F00F080B483B000AF1E4B0D
:100AA4001B68B3F1FF3F0AD11C4B1B68DBB27B60B0
:100AB4001B4B1B681B0903F00F033B6005E0164B3F
:100AC4001B687B60174B1B683B607B68062B1DD142
:100AD4003B68033B042B17D801A252F823F000BF54
:100AE400F90A0000FD0A0000010B0000050B0000DC
:100AF400090B000000230AE0002308E0012306E0BC
:100B0400012304E0012302E0012300E0002318464E
:100B14000C37BD4680BC704730010010E00F00F078
:100B2400E80F00F03401001080B483B000AF1E4B16
:100B34001B68B3F1FF3F0AD11C4B1B68DBB27B601F
:100B44001B4B1B681B0903F00F033B6005E0164BAE
:100B54001B687B60174B1B683B607B68062B1DD1B1
:100B64003B68033B042B17D801A252F823F000BFC3
:100B7400890B00008D0B0000910B0000950B000009
:100B8400990B000001230AE0012308E0012306E099
:100B9400012304E0012302E0012300E000231846BE
:100BA4000C37BD4680BC704730010010E00F00F0E8
:100BB400E80F00F03401001080B483B000AF1E4B86
:100BC4001B68B3F1FF3F0AD11C4B1B68DBB27B608F
:100BD4001B4B1B681B0903F00F033B6005E0164B1E
:100BE4001B687B60174B1B683B607B68062B1DD121
:100BF4003B68033B042B17D801A252F823F000BF33
:100C0400190C00001D0C0000210C0000250C000034
:100C1400290C000001230AE0012308E0012306E077
:100C2400012304E0012302E0012300E0002318462D
:100C34000C37BD4680BC704730010010E00F00F057
:100C4400E80F00F03401001080B483B000AF164BFD
:100C54001B687B60154B1B683B607B68062B1DD1B2
:100C64003B68033B042B17D801A252F823F000BFC2
:100C7400890C00008D0C0000910C0000950C000004
:100C8400990C000000230AE0002308E0002306E09A
:100C9400012304E0012302E0012300E000231846BD
:100CA4000C37BD4680BC7047300100103401001081
:100CB40080B483B000AF164B1B687B60154B1B6878
:100CC4003B607B68062B1DD13B68033B042B17D884
:100CD40001A252F823F000BFF10C0000F50C000053
:100CE400F90C0000FD0C0000010D000000230AE0D7
:100CF400002308E0002306E0002304E0012302E0CF
:100D0400012300E0002318460C37BD4680BC704721
:100D1400300100103401001080B500AFFFF7C8FFA8
:100D24000346002B07D04FF010234FF08042D3F836
:100D34000832C2F8583500BF80BD000080B400AF4F
:100D4400034B044A1A6000BFBD4680BC704700BF15
:100D5400000000200090D00380B500AFFFF7E4FC52
:100D64000346002B06D07F4B1B681B0A7E4A03F008
:100D74001F031360FFF720FD0346002B02D07B4BBB
:100D84007B4A1A60FFF750FD0346002B06D0794BCF
:100D94001B685B0B784A03F007031360FFF78CFDB5
:100DA4000346002B05D0754BDB68744A23F080732F
:100DB400D360FFF7B9FD0346002B0ED04FF08043FC
:100DC4000022C3F80C214FF080430022C3F8102105
:100DD4004FF080430022C3F83825FFF7EDFD0346AA
:100DE400002B02D0664B03221A60FFF71DFE034658
:100DF400002B0BD0634B05221A60634B01221A604F
:100E0400624B00221A60624B3F221A60FFF744FED5
:100E14000346002B76D04FF080535E4AD3F8043457
:100E2400C2F820354FF080535A4AD3F80834C2F838
:100E340024354FF08053574AD3F80C34C2F8283580
:100E44004FF08053534AD3F81034C2F82C354FF086
:100E54008053504AD3F81434C2F830354FF08053DD
:100E64004C4AD3F81834C2F834354FF08053494A09
:100E7400D3F81C34C2F840354FF08053454AD3F8B8
:100E84002034C2F844354FF08053424AD3F8243416
:100E9400C2F848354FF080533E4AD3F82834C2F89C
:100EA4004C354FF080533B4AD3F82C34C2F85035BC
:100EB4004FF08053374AD3F83034C2F854354FF0EA
:100EC4008053344AD3F83434C2F860354FF0805339
:100ED400304AD3F83834C2F864354FF080532D4A81
:100EE400D3F83C34C2F868354FF08053294AD3F81C
:100EF4004034C2F86C354FF08053264AD3F844345A
:100F0400C2F87035FFF710FE0346002B05D0224BC4
:100F14001B68224A03F04F031360FFF74DFE03469C
:100F2400002B0DD04FF08043D3F8003403F00103BD
:100F3400002B05D04FF080436FF00102C3F800246A
:100F4400FFF782FE0346002B05D0154B1B68144A9D
:100F540043F480631360FFF7DFFEFFF7EFFE00BF8B
:100F640080BD00BF240300104035014074C0074019
:100F74000DF0ADBA440200103C050040F0ED00E075
:100F8400A005004010560040885600401856004006
:100F94001456004000C0004058020010E40E004007
:100FA4003C1700400F49104A104B00F010F810494C
:100FB400104A114B00F00BF81049114A114B00F084
:100FC40006F81149114A124B00F001F806E0521AD2
:100FD40003DD043A98588850FBDC7047FFF7BCFEE9
:100FE400FFF71EFB00000020B8060020EC7600008E
:100FF400B8060020B8060020A47D0000B806002032
:10100400B8060020A47D0000B8060020B806002021
:10101400A47D0000FEE7FEE7FEE7FEE7FEE7FEE74D
:10102400FEE7FEE7FEE7FEE7830730B547D0541E30
:10103400002A3ED0CAB2034601E0013C39D303F88A
:10104400012B9D07F9D1032C2CD9CDB205EB052535
:101054000F2C05EB054535D9A4F1100222F00F0C35
:1010640003F1100EE6444FEA121C1A46C2E9005579
:10107400C2E9025510327245F8D10CF1010214F0A4
:101084000C0F03EB021204F00F0C13D0ACF10403A9
:1010940023F003030433134442F8045B9342FBD16B
:1010A4000CF003042CB1C9B21C4403F8011BA34285
:1010B400FBD130BD64461346002CF4D1F9E7034656
:1010C4001446C0E71A46A446E0E700BF70B50F4BCC
:1010D4000F4DAB42A3EB050607D0B610002455F81C
:1010E400043B01349847A642F9D806F06DFA094D3D
:1010F400094B5E1BAB424FEAA60606D0002455F806
:10110400043B01349847A642F9D870BDD875000055
:10111400D8750000D8750000E075000008B50021FE
:10112400044602F055FD034B1B6803B19847204663
:1011340006F048FAA0090020002301461A46184682
:1011440002F050BE0EB400B582B003AB816853F810
:10115400042B019300F02EF802B05DF804EB03B009
:10116400704700BF0FB400B5074983B004AB0868EB
:1011740053F8042B8168019300F01CF803B05DF868
:1011840004EB04B0704700BF0800002038B5074DD9
:10119400074C2C1BA41005D0013C55F8043D98477E
:1011A400002CF9D1BDE8384006F018BAF0750000FB
:1011B400EC7500002DE9F04FC3B01C460891914630
:1011C4000D9305460C9003F085FD026814921046B9
:1011D40002F074FF13901DB16B6B002B01F01B80A8
:1011E4000899B1F90C204B6E900405D442F40052D6
:1011F40023F400538A814B669F0401F14381089ACA
:10120400B2F90C301E0740F1DD801269002A00F0AB
:10121400D98003F01A030A2B00F0E3800023CDE900
:101224002633CDE9153312930A9300240023CDE924
:10123400103432AA25929246CB469BF80030002BFC
:1012440000F05F815C4604E014F8013F002B00F0DD
:101254003C81252BF8D1B4EB0B0540F03981237880
:10126400002B00F04E814FF000038DF877300027FB
:101274006378099704F1010B4FF0FF390BF1010B6F
:101284009846A8F12003582B00F24881DFE813F0B8
:101294007B024601460176024601460146014601AB
:1012A400460146013E027002460149024E024601D1
:1012B4006B0259005900590059005900590059004E
:1012C40059005900460146014601460146014601BE
:1012D40046014601460146016800C1014601C101BB
:1012E4004601460146014601A60246014601B800F0
:1012F40046014601460146014601C9004601460130
:101304004D06460146014601460146014601460195
:1013140046014601460198026A00C101C101C101AA
:1013240093026A004601460186024601E202BA00BF
:10133400D102CC024601AB024601CB004601460174
:101344006D06A8F1300300221BF8018B02EB820228
:1013540003EB4202A8F13003092BF5D9099290E777
:1013640047F01007BD0640F1AA810D9B073323F017
:1013740007031A46596852F8083B0D920A46002999
:10138400C0F2AF81B9F1000F9DF87740C0F2B0818F
:1013940027F08001069153EA020140F0A88101215F
:1013A400B9F1000F40F04B83002940F0E98417F0B5
:1013B40001030B9300F0298530238DF8C7300DF11C
:1013C400C7056EE0089D0C98294602F047FA0028EC
:1013D40041F05880B5F90C3003F01A030A2B7FF45E
:1013E4001DAF089BB3F90E30002BFFF617AF089919
:1013F4000C9823464A4643B0BDE8F04F01F0FEB8CE
:1014040047F0100717F0200200F04A810D9B0733C4
:1014140023F0070319465A6851F8083B0D9100213F
:101424000FE047F0100717F0200200F02F810D9B0A
:10143400073323F0070319465A6851F8083B0D9106
:1014440001210024B9F1000F8DF8774006DB27F065
:101454008000069053EA0200A2D0069F012900F002
:101464004781022900F0F58232AD03F00701DB0861
:1014740043EA4273D208303153EA0206284605F89B
:10148400011DF2D1FB0740F1F282302900F0EF8216
:101494003023023805F8013C32AB1B1A06970B9334
:1014A40005460B9B4B45B8BF4B46079300230F9350
:1014B40014B1079B01330793069B13F002033FD03B
:1014C400079B0233079302233AE0B4EB0B0518D0D1
:1014D400279B2B442793269B0133072BCAE900B58E
:1014E400269305DC0AF1080A0A9B2B440A93B6E604
:1014F40008990C9825AA02F04DFE30B90DF1C80ADE
:10150400F2E7279B002B40F00D87089B9B895B0625
:1015140000F1B8870A9843B0BDE8F08FB8F1000F26
:10152400EFD000238DF8773001238DF8A080079346
:101534000B9328AD4FF000090697CDF83C904B462D
:10154400069A279C12F084020E9205D1099A0799F3
:10155400561A002E00F3FB829DF877208AB1269A52
:101564000DF1770101320134CAF80010072A4FF057
:10157400010127942692CAF8041000F323830AF188
:10158400080A83B1269A1EA901320234CAF800104F
:10159400072A4FF0020127942692CAF8041000F398
:1015A4001F830AF1080A0E9B802B00F0C7810B9B56
:1015B400A9EB0306002E00F30382069BDE0500F16F
:1015C40056810B9BCAF804301C44269BCAF8005071
:1015D4000133072B2794269300F362820AF1080A49
:1015E400069B5A0705D5099B079A9D1A002D00F3FF
:1015F4000383DDE9092307998A42ACBF9B185B1872
:101604000A93002C40F03882002326930DF1C80A77
:1016140013E60D9B073323F00703F3E802450D930C
:1016240025F0004319931894DDE91801BD4B4FF0E0
:10163400FF32CDE9104505F039FF002840F0F08372
:10164400DDE91801B74B4FF0FF3205F011FF002818
:1016540040F0E683002200232046294605F0FEFEE2
:10166400002840F049869DF87740AF4D27F080036D
:101674000693AE4BB8F1470FD8BF1D464FF0000993
:10168400032307930B93CDF83C9011E70D9951F880
:10169400043B0D9117F0100100F0BA830121D0E64C
:1016A4000D9951F8043B0D9117F010017FF4B7AE7A
:1016B40017F040023FF4B3AE0A469BB2AFE60D9A70
:1016C400FC0652F8043B0D9206D4780604D543F385
:1016D400C03211461BB252E6DA1711460029BFF692
:1016E40051AE5B4262EB42022D240121AAE6069F21
:1016F4000A2B72F1000180F0048530338DF8C73075
:10170400012306970B930DF1C705CAE60D9B53F809
:10171400042B0992002A80F27383099A0D93524292
:1017240009929BF8003047F00407A7E55A4612F8DF
:10173400018BB8F12A0F00F02F87A8F13003092B91
:1017440098BF4FF0000900F2AE8612F8018B09EB46
:10175400890903EB4909A8F13003092BF5D949EAB2
:10176400E97993468DE59BF8003047F0800785E5DD
:101774002B238DF877309BF800307FE59BF8003001
:1017840047F001077AE59DF877209BF80030002A9E
:101794007FF474AD20228DF877206FE59BF800303C
:1017A4006C2B03BF9BF8013047F020070BF1010BB2
:1017B40047F0100762E59BF8003047F040075DE50D
:1017C4000D9B00228DF8772053F8042B0D930123F1
:1017D4008DF8A02007930B9328ADABE69BF800305F
:1017E40047F008074AE50D9C54F8045B00268DF881
:1017F4007760002D00F0C883B9F1000FC0F21D8599
:101804004A463146284600F031FF002800F03F8662
:10181400431B0B9323EAE3730D94B1469DF8774081
:10182400069707930F9643E69BF8003047F020078E
:1018340024E50D9A52F8043B0D9247F63002ADF8B8
:1018440078203B4A159247F00207002202214FF00C
:101854007808F6E5BD0640F15F830D9B0A9A1B6884
:101864001A60D2175A600D9B04330D93E5E4B8F166
:10187400650F40F32181DDE910010022002305F00A
:10188400E3FD002800F0F581269B2A4ACAF80020CF
:10189400013301340122072B27942693CAF804202C
:1018A40000F3AC840AF1080A1F9B129A934280F257
:1018B400A282139B149A1C44CAE90023269B2794F2
:1018C4000133072B269300F353830AF1080A129B72
:1018D4005D1E002D7FF784AE102D269B164F40F31E
:1018E400D480DDF83080DDF82090102605E00AF180
:1018F400080A103D102D40F3C88001331034072B23
:10190400CAE90076CDE92634F1DD25AA49464046E8
:1019140002F040FC00287FF4F8ADDDE926340DF137
:10192400C80AE6E7FFFFEF7F100200000C02000088
:10193400300200004C02000030030000099B079AAB
:101944009E1A002E7FF733AE102E269BAF4F24DD58
:1019540052462146AA460C9C089D04E0103E102ED7
:1019640002F1080216DD013310311020072BCDE9F6
:10197400263117605060F1DD25AA2946204602F081
:1019840009FC00287FF4C1AD103E102EDDE926319C
:1019940032AAE8DC55460C46924601333444072B00
:1019A400CDE92634CAF80070CAF8046000F338841C
:1019B4000B9BA9EB0306002E0AF1080A7FF7FDAD85
:1019C400102E269B914F2CDD52462146B2460C9C8C
:1019D4002E464FF01009089D06E0AAF1100ABAF14C
:1019E400100F02F1080218DD013388481031072B6B
:1019F400C2E90009CDE92631EFDD25AA29462046B2
:101A040002F0C8FB00287FF480ADAAF1100ABAF1F5
:101A1400100FDDE9263132AAE6DC35460C4656467F
:101A2400924601333444072BCDE92634CAF80070BA
:101A3400CAF8046000F3D2810AF1080ABDE501295D
:101A4400069F4FF000033FF458AE02291A467FF474
:101A54000BAD159832AD03F00F011B09415C05F87D
:101A6400011D43EA0273120953EA0201F3D132ABB6
:101A74005B1B06970B9314E508990C9825AA02F0B2
:101A840089FB00283FF4C0AD3FE501332C44072B0C
:101A9400CAF80070CAF80450CDE926347FF79EAD29
:101AA40008990C9825AA02F075FB00287FF42DAD47
:101AB400279C0DF1C80A93E5129B269E012B04F185
:101AC400010406F101060AF1080840F33E810123EE
:101AD400072ECDE92664CAF80050CAF8043000F392
:101AE400F682139B149A01361C44072EC8E900237E
:101AF400CDE9266400F3F88208F10808129BDDE9B9
:101B0400100103F1FF390022002305F09DFC002899
:101B140040F03B81013601354C44072ECDE9266463
:101B2400C8F80050C8F8049000F31D8108F10808B3
:101B3400169BC8F8043001361C44072E21ABCDE9AE
:101B44002664C8F80030ABDC08F1080A48E5102E1A
:101B5400269A2F4F28DD51462046CA460C9C1793DF
:101B6400A946089D04E0103E102E01F1080116DD7F
:101B7400013210301023072ACDE926200F604B6074
:101B8400F1DD25AA2946204602F004FB00287FF453
:101B9400BCAC103E102EDDE9262032A9E8DC179BF0
:101BA4004D460446D1468A4601323444072ACDE9DB
:101BB4002624CAF80070CAF8046000F3DC820AF133
:101BC400080AC9E408990C98179325AA02F0E2FAC6
:101BD40000287FF49AAC279C179B0DF1C80AD0E427
:101BE40008990C9825AA02F0D5FA00287FF48DAC48
:101BF400279C0DF1C80AD6E4102D269B044F25DD41
:101C0400DDF83080DDF82090102608E03003000075
:101C140020030000103D102D0AF1080A16DD0133DF
:101C24001034072BCAE90076CDE92634F2DD25AA63
:101C34004946404602F0AEFA00287FF466AC103DF7
:101C4400102DDDE926340DF1C80AE8DC01332C44FB
:101C5400072BCAE90075CDE926347FF7CAAC089989
:101C64000C9825AA02F096FA00287FF44EAC279C23
:101C7400BFE41F99002940F38D820F9F129B9F425E
:101C8400A8BF1F46002F0BDD269B01333C44072BC6
:101C9400CAE900572794269300F3D6830AF1080A69
:101CA4000F9E002FA8BFF61B002E00F377811F9B09
:101CB400129A9342C0F2A181069AD00700F19D8145
:101CC400129A0F99D31A561A9E42A8BF1E46002E86
:101CD4000EDD269ACAF8046001320D443444072A02
:101CE400CAF800502794269200F3BA830AF1080A2E
:101CF400002EACBF9D1B1D46002D7FF771AC102D2F
:101D0400269BAC4F7FF7C1AEDDF83080DDF8209024
:101D1400102605E00AF1080A103D102D7FF7B5AE34
:101D240001331034072BCAE90076CDE92634F1DDFE
:101D340025AA4946404602F02DFA00287FF4E5AB77
:101D4400DDE926340DF1C80AE6E7069BD9073FF51D
:101D5400BEAE0123072ECDE92664CAF80050CAF8A6
:101D640004307FF7E5AE08990C9825AA02F012FA20
:101D740000287FF4CAABDDE926640DF1C808D7E674
:101D8400CDF82C9032ADFFF78CBB129B012B7FF763
:101D9400CFAE112B874F40F39582DDF830A010258C
:101DA40007E008F10808A9F11009B9F1100F40F390
:101DB400898201361034072EC8E90075CDE92664FE
:101DC400EFDD089925AA504602F0E4F900287FF4D3
:101DD4009CABDDE926640DF1C808E4E708990C988A
:101DE40025AA02F0D7F900287FF48FAB279C0DF1C8
:101DF400C80AFFF7E2BB069BDD077FF5F1AB58E5A8
:101E04000D939BF80030FFF739BA32ADFFF749BBA9
:101E140017F040021CBF0A469BB20121FFF711BB19
:101E2400DDE9100102460B4605F040FB002840F0B6
:101E34007B83B9F1FF3F28F0200600F02083472E72
:101E440004D1B9F1000F08BF4FF00109DDE9101208
:101E540047F48070002A0690C0F2DA8200230E93C1
:101E6400DDE91034CDE91A34B8F1650F00F0A5822C
:101E740000F3E282B8F1450F00F09F8223AB049394
:101E840020AB03931FAB0293022300930C98CDF86D
:101E94000490DDE91A2300F09FFDF907054640F19F
:101EA400C08000EB0904DDE91A010022002305F0DB
:101EB400CBFA002840F03282239BA34206D2302181
:101EC4005A1C23921970239B9C42F9D81F9A0F9293
:101ED4005B1B472E129300F0A980B8F1660F40F007
:101EE400BC800F9A07F00103002A43EA090340F378
:101EF4006183002B40F03E830F9B07930B934FF0BD
:101F040066080E9B002B00F07D822D238DF8773020
:101F14004FF00009FFF7CDBAFC067DD478067BD5D7
:101F24000D9B0A9A1B681A809DE4234B159317F0A6
:101F3400200200F0BE800D9B073323F007031946EF
:101F44005A6851F8083B0D91F90740F1AF8053EA04
:101F5400020100F0AB8030218DF878108DF8798083
:101F640047F002070221FFF76CBA144B1593DEE722
:101F740008990C9825AA02F00DF900287FF4C5AA47
:101F8400279C0DF1C80AA2E44B46062B28BF062362
:101F94000B4D0B930D940793FFF7CCBA102E269B91
:101FA400044F40F39C812246DDF83090089C4FF0AA
:101FB40010080DE0300300001C0200003002000095
:101FC400440200000AF1080A103E102E40F38681F4
:101FD40001331032072BCAE90078CDE92632F1DD4E
:101FE40025AA2146484602F0D5F800287FF48DAA98
:101FF400DDE926320DF1C80AE6E7139A1499144470
:10200400CAE90012269A27940132072A269200F37D
:1020140006820AF1080A53E60D9B0A9A1B681A60A5
:1020240021E4239B1B1A12931F9B0F930F9BDA1C13
:1020340011DB99450FDB129B0F9A934200F35982EF
:10204400FE070F9B00F1818223EAE37207920B9350
:102054004FF0670855E7A8F102080F9B8DF88480BC
:10206400591E00291F91B6BFC3F101012B232D2353
:1020740009298DF8853000F35C81302330318DF8E7
:10208400863004238DF887101693129A169B012A22
:1020940013440B9340F324820B9B139A13440B9326
:1020A40023EAE373079300230F932AE70221FFF740
:1020B400C8B90D9951F8043B0D9117F010017FF444
:1020C40043AF17F040021CBF9BB20A463CE7089995
:1020D4000C9825AA02F05EF800287FF416AADDE920
:1020E40026640DF1C808FCE408990C9825AA02F0AE
:1020F40051F800287FF409AADDE926640DF1C80827
:10210400FCE4CDE90687BC4E32AD4FF0050E9918BC
:1021140041F10001A6FB010727F0030000EB970043
:10212400091A581A9846944662F100034FF0CC32CB
:1021340002FB00F206FB0322A0FB063003F00107BA
:102144000244A7FB0E074018B8F10A0F4FEA5303E5
:1021540000F130007CF1000C43EAC27305F8010D74
:102164004FEA5202D3D2DDE9068732AB5B1B0697F6
:102174000B93FFF796B908990C98179325AA02F0C8
:1021840009F800287FF4C1A9279C179B0DF1C80A00
:10219400FFF7E2B9269B994ACAF8002001330134BB
:1021A4000122072B27942693CAF8042000F3A98060
:1021B4000AF1080A00294FD1069B129A03F0010381
:1021C40013433FF40DAA139B14991A19CAE9001377
:1021D400269B27920133072B269300F3D4800AF120
:1021E400080A1299CAF8005001338C18072BCDE95C
:1021F4002634CAF804107FF7F1A951E408990C9821
:1022040025AA01F0C7FF00287FF47FA9279C0DF1C0
:10221400C80AFFF749BB0C9801F004FFFEF7E0BFC2
:1022240008990C9825AA01F0B5FF00287FF46DA940
:10223400279C0DF1C80AFFF7BAB9284601F03EFF02
:1022440020EAE0730D940B909DF877400697B14611
:1022540007930F96FFF72CB9139B14981A19CAE920
:102264000003269B27920133072B269300F38B80D0
:102274000AF1080A0029B4DA4E421031604F80F2A4
:102284001781DDF83080DDF82090102405E00AF194
:10229400080A103E102E40F30B8101331032072B35
:1022A400CAE90074CDE92632F1DD25AA4946404643
:1022B40001F070FF00287FF428A9DDE926320DF132
:1022C400C80AE6E701364C44072ECDE92664C8F86F
:1022D4000070C8F804907FF729AC44E51446013334
:1022E4003444072BCDE92634CAF80070CAF80460D8
:1022F40057DC0AF1080ADAE42D248DF87740FFF759
:10230400B4B908990C9825AA01F044FF00287FF479
:10231400FCA81F99279C0DF1C80A4BE71F9A0F923E
:102324002346D5E508990C9825AA01F033FFFFF759
:10233400ECB80DF19304304E23461846A6FB012356
:10234400DB0803EB8302A1EB4202303200F8012CDC
:102354000A46632A194600F1FF33EEDC303103F8F4
:10236400011C831EA34280F022810DF1850213F823
:10237400011B02F8011FA342F9D142AB181AA0F1C4
:102384007103169381E608990C9825AA01F002FFBF
:1023940000287FF4BAA8DDE926321F990DF1C80A96
:1023A40068E708990C9825AA01F0F4FE00287FF448
:1023B400ACA8279C0DF1C80A79E409F1010307933D
:1023C4000223009323AB049320AB079C03931FAB1E
:1023D400019402930C98DDE91A2300F0FDFAB8F198
:1023E400660F054604447FF45EAD2B78302B00F075
:1023F4008D801F9B1C4456E5CDCCCCCC4C020000F8
:1024040030030000DDF838909DF87740FFF750B8AE
:1024140002F100431B932D231A910E9324E508998E
:102424000C9825AA01F0B6FE00287FF46EA81F9B25
:10243400279C0DF1C80A43E4B8F1660F7FF41EAD82
:10244400CDF81C900323BCE708990C9825AA01F049
:10245400A1FE00287FF459A8279C0DF1C80A1FE4A7
:1024640008990C9825AA01F095FE00287FF44DA840
:102474001F9B129A279CD31A0DF1C80A38E44FF017
:102484000609E3E44FF0FF330A93FFF743B80D94D2
:10249400CDF81C90CDF82C909DF877400697814696
:1024A4000F90FFF705B893464FF00009FEF7E9BE19
:1024B40001333244072BCDE92632CAF80070CAF83A
:1024C40004607FF78CAE08990C9825AA01F062FE8F
:1024D40000287FF41AA8DDE926320DF1C80A80E647
:1024E40017F001020F927FF4D7AD23EAE373079349
:1024F40007E5DDE9123213440F9A0B93002A2DDD10
:1025040023EAE37307934FF06708FAE4DDE91A015D
:102514000022002304F098FF002837D01F9B0F935C
:102524001C44631B1293DCE4119B2C4D002BB8BF9D
:102534002D2427F080030693A8BF9DF87740284BED
:10254400B8BF8DF87740FFF795B8139A13440B93EF
:1025540023EAE37307934FF06708D2E40F9B0B9AC7
:10256400C3F101031A4422EAE2730B9207934FF07A
:102574006708C6E4139B09EB030808EB02030B93FB
:1025840023EAE37307934FF06608BAE4079BC3F1A9
:1025940001031F931C4486E40D999BF8013051F804
:1025A400049B0D91934649EAE979FEF767BE02233D
:1025B40016936AE52BB9012307934FF066080B9332
:1025C4009FE4139B03F1010808EB09030B9323EA2F
:1025D400E37307934FF0660893E400BF180200000A
:1025E4001402000010B4044C84461346206810BC46
:1025F4000A466146FEF7DEBD0800002070B50C46B1
:102604008989ADF58D6D21F00201ADF80C101AA980
:10261400009104914FF4806102910591616E1991CA
:10262400E189ADF80E10E1690791616A0991002111
:10263400069169460646FEF7BDFD051E07DB6946A1
:10264400304600F0F7F8002818BF4FF0FF35BDF80A
:102654000C305B0603D5A38943F04003A3812846CD
:102664000DF58D6D70BD00BF0000000001F0FF018D
:10267400102A2BDB10F0070F08D010F8013B013AA9
:102684008B422DD010F0070F42B3F6D1F0B441EADB
:10269400012141EA014122F007047FF000070023F1
:1026A400F0E80256083C85EA010586EA010685FA47
:1026B40047F5A3FA87F586FA47F6A5FA87F68EB9A1
:1026C400EED1F0BC01F0FF0102F0070232B110F8C4
:1026D400013B013A83EA010313B1F8D100207047AA
:1026E40001387047002D06BF35460338073815F00A
:1026F400010F07D1013015F4807F02BF013015F4BA
:10270400C03F0130F0BC0138704700BFB1F90C2064
:10271400F8B516070C46074649D4496842F40063E5
:102724000029A3815FDDA56A002D3ED0002112F4AB
:1027340080523E683960E16961D101233846A84777
:10274400451C02466BD0B4F90C30A56AE169580700
:1027540005D56368D21A236B0BB1E36BD21A00233D
:102764003846A847411C4CD13968B4F90C301D29AE
:102774003FD82F4ACA40D2073BD52269226023F4AE
:102784000062A281DD044FF00002626001D50029DD
:1027940043D0216B3E6041B104F14003994202D021
:1027A400384601F019F9002323630020F8BD0E69AF
:1027B400002EFAD00D680E6092070CBF4B690023FF
:1027C400AD1B8B600CE0D4F824C0E1692B46324683
:1027D4003846E047B0F1000CA5EB0C05664406DD75
:1027E400002DF0DCE1E7E16B00299CDCDDE7B4F9C6
:1027F4000C3043F04003A3814FF0FF30F8BD226D4D
:10280400A5E7B4F90C302269226023F40062A281A6
:10281400DB044FF000026260BBD52065B9E73B687A
:10282400002B90D01D2B01D0162BE0D13E60BCE7CD
:102834000100402010B5044682B008B1436B53B187
:10284400B1F90C0008B902B010BD204602B0BDE8D1
:102854001040FFF75BBF019101F0E4FB0199EFE742
:10286400A0B138B50C4B1D6804460DB16B6B4BB170
:10287400B4F90C0000B938BD21462846BDE83840FB
:10288400FFF744BF284601F0CDFBF1E7034A0449B2
:10289400044802F0FBB900BF08000020300100200A
:1028A4003928000010000020000000002DE9F04F3E
:1028B40003690C69A34283B0C0F28A80013C01F130
:1028C400140500F1140855F8243058F82420013375
:1028D4009A428E4681464FEA840105EB840708EB51
:1028E400840AB2FBF3F63AD3CDE900150022AC46D4
:1028F400404613465CF8041B05681FFA81FB06FB7F
:102904000B22090C4FEA124B06FB01BB92B2A9B28F
:10291400891A19441FFA8BF3C3EB214303EB1543C4
:1029240089B241EA0341674540F8041B4FEA1B4260
:102934004FEA2343DED2DDE9001558F8013073B9BC
:10294400AAF1040AD04504D307E0D04504F1FF34CA
:1029540003D25AF80439002BF7D0C9F81040714655
:10296400484601F02FFF00282EDB4146002255F88F
:10297400040BD1F800C01FFA80FE1FFA8CF3A3EBFE
:102984000E031344020CC2EB234202EB1C429BB223
:1029940043EA0243AF4241F8043B4FEA2242E6D203
:1029A40058F8242008EB84036AB9043B434504D84F
:1029B40007E0984504F1FF3403D253F80429002AB0
:1029C400F7D0C9F810400136304603B0BDE8F08FA7
:1029D400002003B0BDE8F08F2DE9F04F816B9BB070
:1029E40016461F46CDE90667279D049049B1C26B80
:1029F4004A600123934004468B6001F027FC0023C6
:102A0400A363B7F10009B4BF012300232B60794B02
:102A1400BCBF29F00049CDF81C9033EA090300F04B
:102A2400AD80DDE906340022184621460023CDE9B5
:102A3400020104F009FD804668B1269A012313605F
:102A4400289B13B1289A6C4B13606C4B0593059823
:102A54001BB0BDE8F08F18AB019319AB0093049839
:102A6400DDE9022302F010F85FEA1955824640F0CE
:102A74009B80DDE91885454405F23243202B40F361
:102A84008F83C3F1400309FA03F905F2124326FACE
:102A940003F349EA030004F0F5F90123013DA1F130
:102AA400F8711093564B002204F0AEF84BA3D3E90F
:102AB400002304F061FA4BA3D3E9002304F0A6F841
:102AC400064628460F4604F0EDF948A3D3E900234F
:102AD40004F052FA02460B463046394604F096F8A2
:102AE40006460F4604F0F8FC002204460890002332
:102AF4003046394604F0B2FC002840F02783089C95
:102B0400A8EB050808F1FF33162C099300F28D8118
:102B14003C4B03EBC403D3E90023DDE9020104F0D9
:102B24009DFC002874D0631E089300230F9308F1C2
:102B3400FF33002BC0F2808100230A93089B002BF3
:102B44006CDA089B0A9A0B93D21A0A925A4200230F
:102B54000893249B0E92092B6AD8052B40F32583F6
:102B6400043B24930025249B023B032B00F237866D
:102B7400DFE813F07304700467044B04269AC9F366
:102B8400130942F20F7359EA060913601CD1289BFA
:102B9400002B00F044861C4B05930833289A0598B3
:102BA40013601BB0BDE8F08FDDE90212C2F313031A
:102BB400084643F07F51CDF84080A5F2FF35DDF89B
:102BC400608041F440116DE7289B002B40F0F883AE
:102BD4000E4B05933BE700BFAFF3008061436F6387
:102BE400A787D23FB3C8608B288AC63FFB799F5022
:102BF4001344D33F0000F07F4D0200004C0200005C
:102C04000000F83F50030000500200005C02000086
:102C1400B8F1000F40F3A6840F900A90DDE9082371
:102C24001344099300230E93249B0B92092B94D9EC
:102C34000023CDE9243301250C954FF0FF3B049B81
:102C4400CDF844B00021D963049801F0D9FA059075
:102C5400002800F0CD85DDE90432BBF10E0F9A6344
:102C640000F21981002D00F016810B99002940F320
:102C74004984B44B01F00F0203EBC203C805D3E946
:102C840000894FEA211540F10B84AF4BDDE90201C5
:102C9400D3E9082304F09AFACDE9120105F00F05EF
:102CA40003277DB1A84EE90708D540464946D6E931
:102CB400002304F061F90137804689466D1006F15E
:102CC4000806F0D142464B46DDE9120104F07EFAD3
:102CD400804689460F9B43B19C4B0022404649469F
:102CE40004F0BCFB002840F00A85384604F0DAF80A
:102CF40042464B4604F040F9954B002203F086FF10
:102D0400A1F15073CDE912011393BBF1000F00F050
:102D1400A9800B9BCDE916B34946404604F0DCFB81
:102D24008849169C01EBC40353E902120546CDE918
:102D3400141204F0B7F80B4602464946404603F025
:102D440063FF059F0C9B30357E1CECB280468946A0
:102D54003546002B00F06E84DDE914237D49002004
:102D640004F034FADDE9122303F04EFF3C704246CE
:102D74004B4604460D4604F08FFB002840F0B78410
:102D8400CDF850B00027DDF858B0CDF848A02BE0BE
:102D940001375F4580F2FD846F4B204629460022AF
:102DA40004F0EAF86C4B002204460D4640464946BE
:102DB40004F0E2F88946804604F08EFB824604F073
:102DC40071F802460B464046494603F01DFF0AF1DE
:102DD400300A06F801AB22462B468046894604F0A9
:102DE4003DFB002840F0D28442464B465749002020
:102DF40003F00AFF22462B4604F030FB0028C7D01C
:102E0400179BDDF848A0059A374603F1010802E054
:102E1400974200F09A843E4617F8013D392BF7D0CB
:102E24000133DBB23B7045467FE101230F9308F188
:102E3400FF33002BBFF680AEC8F101030A930023D1
:102E440009937BE6384604F02DF842464B4604F0DD
:102E540093F83F4B002203F0D9FEA1F15073CDE962
:102E6400120113933D4B00224046494603F0CCFE29
:102E7400DDE9124522462B4606460F4604F00CFBBC
:102E8400002840F0718430463946224605F100435B
:102E940004F0E4FA28BB199B002BC0F291800B9A32
:102EA4000E2A00F38D80274B0B9A03EBC203D3E960
:102EB4000034CDE90634259B002B19DABBF1000F51
:102EC40016DC0ED1254B0022DDE9060104F054F88E
:102ED40002460B46DDE9020104F0CAFA002800F0BC
:102EE40043840023059E02931F46259BDD432EE267
:102EF400059B5D1CDDE90678DDE902013A4643469F
:102F040004F064F904F0E8FA064603F0CBFF3A460D
:102F1400434604F031F802460B46DDE9020103F0B2
:102F240073FE059A06F13003BBF1010F2F461370AF
:102F340000F023830125CDF808A0A846DDE9069A10
:102F44002CE000BF50030000400400000000F03FEC
:102F540000001C400000E03F00002440000014403A
:102F64004A4653462046294604F030F904F0B4FAA0
:102F7400064603F097FF4A46534603F0FDFF08F167
:102F840001080B4602462946204603F03DFE06F1A1
:102F94003003D84507F8013B00F0ED82844B002252
:102FA40003F0EAFF0022002304460D4604F04CFA25
:102FB4000028D5D00B9DDDF808A001353E46B4E0CD
:102FC4000C9A002A40F0D88000230E9E0A9D0C9390
:102FD4001F4665B1099900290B4608DD0A9AA942E2
:102FE400A8BF2B46D21AED1ACB1A0A9209930E9B4C
:102FF40053B10C9B13B1002E40F0F88251460E9A47
:10300400049801F00DFB82460498012101F024FA92
:10301400089B0290002B40F0BE81249B012B40F3BF
:10302400D4810120099A104410F01F0000F09B8005
:10303400C0F12003042B40F3E3810A9BC0F11C0080
:10304400034402440A93054409920A9B002B05DDBC
:10305400514604981A4601F03DFB8246099B002B19
:1030640005DD029904981A4601F034FB02900F9B87
:10307400002B40F07581BBF1000F40F34C810C9B99
:10308400002B40F0A4800B9D0135DDF81480029CD8
:10309400DDF81090012607E0514600230A22484635
:1030A40001F0DEF80136824621465046FFF7FEFB6A
:1030B400B34500F1300008F8010BEDDCBBF1000F63
:1030C400059BCCBF5E460126814603EB060B00241C
:1030D40051460122049801F0FDFA0299824601F05A
:1030E40071FB002840F3EF81059A02E0934500F05C
:1030F40004825E460BF1FF3B16F8013C392BF5D0F8
:1031040001338BF80030DDF810800299404601F05D
:103114009DF857B12CB1BC4203D02146404601F082
:1031240095F80498394601F091F80498514601F055
:103134008DF800233370269B1D60289B002B3FF4E1
:1031440086AC05981E601BB0BDE8F08F204603F0E6
:10315400A9FE32463B4604F077F900287FF4CFAC51
:10316400631E0893CBE41C230A9A1A440A92099A10
:103174001A441D44099268E7249A012A40F3AE8157
:103184000E9B0BF1FF36B342C0F26A81BBF1000F14
:10319400A3EB060680F2EC820A9BA3EB0B056DE120
:1031A400C3F1200306FA03F075E40125DBE400BF54
:1031B400000024403946002304980A2201F050F804
:1031C400119B002B074640F3FC820B969B46002D77
:1031D40005DD394604982A4601F07CFA0746089B27
:1031E400002B40F0E781B846059E731E03EB0B04E9
:1031F400069B0A9403F00103049C0C930299504625
:10320400FFF754FB39468346504601F0DBFA029936
:1032140005464246204601F0F5FAC3680BF1300931
:103224000146ABBB0990504601F0CCFA09990890CD
:10323400204601F00BF8089A002A54D1249B1BB9AC
:103244000C9B002B00F0AB82002D3FDB0A9BB346A6
:103254009E420BF8019B00F0C481514600230A22D0
:10326400204600F0FDFF4745824639464FF00003F3
:103274004FF00A02204630D000F0F2FF41460746E4
:1032840000230A22204600F0EBFF5E468046B5E7A5
:10329400049800F0DBFF002D06DB069B03F001021F
:1032A400249B1D432A4329D151460122049801F04D
:1032B40011FA0299824601F085FA002840F3F7805A
:1032C400B9F1390F00F046820BF131090B9D06F874
:1032D400019B3C460135474615E700F0C1FF5E46B9
:1032E400074680468AE7002DC0F29082249B1D4346
:1032F4000C9B1D4300F08A82002AA7DDB9F1390F27
:1033040000F028820B9D09F101033C4606F8013BBD
:1033140001354746F7E6249B022B7FF7B0AEBBF19D
:10332400000F40F02681029904985B46052200F0C4
:1033340097FF01460290504601F044FA002840F3FA
:103344001881059E0B9D312306F8013B0135029936
:10335400049800F07BFF0135002F7FF4E2AEE4E631
:103364000299504601F02EFA0028BFF684AE514669
:10337400002304980B9C0A2200F072FF0C9B661E2B
:103384008246002B7FF416AF119B002B40F30E8274
:103394000B9D9B4679E601461A46049801F040F9D4
:1033A400249B0290012B6FDD00230893029A13697A
:1033B40002EB8303186900F0FDFFC0F1200031E641
:1033C400984B05930333FFF7E9BB069B002B7FF46F
:1033D40028AEDDE90612C2F31303002B7FF421AEFD
:1033E400914B134033B10A9B01330A93099B013378
:1033F40009930123089A0893002A3FF412AED5E7F3
:103404003FF423AEC0F13C03AEE601230C93259BAD
:103414000B9A134403F1010B5E46012E1193B8BFBE
:103424000126172E40F3F681012204235B0003F1E9
:103434001400B042114602F10102F7D9049BD9638A
:1034440002E401230C93259B002B37DD11939B464B
:103454001E46E6E700230C93D9E700230C93F2E71A
:103464000E9B089A0E96F31A1A44099B08925B4421
:1034740009930A9B1D465B440A9300260498012184
:1034840000F0EAFF0746A4E5069B002B8CD1DDE99A
:103494000601C1F313030A46002BA1D0089085E767
:1034A400DDE902340227CDE91234FFF7FABB7FF4D9
:1034B4000DAF19F0010F7FF403AF07E70123259344
:1034C4009B46FFF7BCBB03D119F0010F7FF40CAE90
:1034D4005E461BF8013D302BFAD014E6109A002A00
:1034E40000F09C8003F23343099A0E9E1A44099219
:1034F4000A9A15461A440A92C0E7059A31230135FF
:10350400137000E600F0F6800B9A484B554205F024
:103514000F0203EBC203D3E90023DDE9020103F048
:103524002BFD2D11CDE9120100F05481404E0023F2
:10353400022780468946EA0709D5D6E90023404692
:10354400494603F019FD01378046894601236D1071
:1035540006F10806EFD1002B7FF4BCABDDE912893C
:10356400FFF7B8BBC8F1010309900A930F90FFF766
:1035740055BB059EB9E4DDF808A002460B4603F0EE
:1035840045FB0B9DCDE90201013502460B46DDE901
:103594000601A84603F062FF40B9DDE90223DDE934
:1035A400060103F051FF18B1F30701D5059A32E47F
:1035B4003E46BAE57968049800F022FE05460028E4
:1035C40000F01D813B6902339A0007F10C010C30B5
:1035D40000F060FB04982946012201F07BF8804644
:1035E40002E60B9D3C460135474671E5049C39468D
:1035F4003246204601F014F852460146074620465A
:1036040000F058FF51468046204600F01FFE0E9BF6
:103614009B1BC2460E933FF4F7ACEFE4189BC3F137
:10362400360361E75C0200000000F07F50030000F5
:1036340040040000DDE91423DDE9120103F09CFCE1
:10364400059B1C70169B012BCDE90C0100F0C0807A
:10365400169F059B1F447A4B00224046494603F0BF
:103664008BFC8946804603F037FF044603F01AFCBE
:10367400303402460B464046494603F0C5FA06F884
:10368400014BBE4280468946E5D16E4B0022DDE9FE
:103694000C0103F0BBFA02460B464046494603F0D0
:1036A400FBFE00286CD1DDE90C236649002003F001
:1036B400ABFA02460B464046494603F0CFFE80B9BA
:1036C400199B002BFFF680AC0B9B0E2B3FF77CACB9
:1036D4005D4B0B9A03EBC203D3E90034CDE9063406
:1036E40008E43E46013F16F8013C302BF9D0179D03
:1036F40001351AE5DDE902890227FFF7EBBABBF1D0
:10370400000F3FF49FAB119C002C7FF7C4AB0B9BC5
:10371400013B0022404649461793494B03F02CFCD9
:1037240080468946781C03F0BDFB42464B4603F0B5
:1037340023FC464B002203F069FAA1F15073CDE952
:10374400120116941393FFF7E7BA08F10108312325
:10375400FFF768BB0B9D059AB34639233C460BF82B
:10376400013B01354746C4E4002302931F46E8E5C4
:10377400099B5B4409930A9B1D465B440A937DE6BF
:10378400179B059A03F10108FFF745BBDDF848A034
:10379400ADE7DDF848A0DDF850B0FFF77CBBB9F128
:1037A400390FD7D0002D3FF78FAD8FE5249B022B27
:1037B40003DC0B9DDDF844B067E4DDF844B00B9600
:1037C400ADE5249B022BF8DCDDF844B00B96FEE457
:1037D40037465AE7DDE912890227FFF77BBA049BD3
:1037E4000025DD632946184600F00AFD0590D0B98E
:1037F400174B1848002240F2AF1100F0DBFC144BC9
:1038040014482A4640F2EF2100F0D4FC002A3FF786
:103814004BAD5BE5049B0021D963FFF715BA0E4B52
:103824000593FFF714B9DDE904324FF0FF3B9A63C7
:1038340001232595CDF844B00C93FFF72CBB00BFB2
:10384400000024400000E03F5003000000001C4042
:1038540060020000740200005002000038B52F4BD3
:103864001B6805460C4613B15A6B002A4BD0B4F9B9
:103874000C3018071CD5226922B313F0010107D0BC
:10388400616900204942A060A1613AB1002038BDBD
:10389400980758BF6169A160002AF7D1190658BF7B
:1038A4001046F4D543F04003A3814FF0FF3038BDF8
:1038B400D9062CD55A0712D4226943F00803A381F0
:1038C400002ADAD103F42071B1F5007FD5D0214666
:1038D400284601F007FAB4F90C302269CDE7216BD0
:1038E40051B104F14002914204D0284600F074F82A
:1038F400B4F90C300022226322690021C4E90021BA
:1039040023F02403D9E7184600F08CFBAFE7092223
:1039140043F040032A60A381C7E700BF08000020EA
:103924002DE9F84306460820894600F04DFADFF8F1
:103934009C800546304600F087FAD8F808305F6866
:1039440027F00307A7F11104A4EB09042C44B4FBEA
:10395400F5F4013C05FB04F4A54208DC00213046E3
:1039640000F088FBD8F808303B44984205D0304634
:1039740000F06CFA0020BDE8F8836142304600F0A4
:1039840079FB01300FD0124AD8F808303F1B47F0BA
:1039940001075F60136830461B1B136000F056FA82
:1039A4000120BDE8F8830021304600F063FBD8F81D
:1039B4000820831A0F2BDADD43F001035360054B13
:1039C40003491B68C01A0860D1E700BFA8020020A1
:1039D400A8090020B006002000297CD0F8B50C46C8
:1039E400064600F031FA54F8043C764FA4F1080579
:1039F40023F001016818D7F808C04268844522F012
:103A0400030200F08380DB07426000EB020C33D436
:103A140054F8084CDCF804302D1B2144AC6807F141
:103A2400080C644503F0010364D0D5F80CE0C4F835
:103A34000CE0CEF80840002B00F0818041F0010337
:103A44006B600160B1F5007F22D27868CB08012257
:103A5400490901338A40024357F833107A6007EB6F
:103A6400C302083AC5E9021247F83350CD60304624
:103A7400BDE8F84000F0EAB9DCF80430DB072BD5E8
:103A840041F00103B1F5007F44F8043C0160DCD34C
:103A9400B1F5206F4FEA512353D28B0903F139005A
:103AA40003F13802C300F818FB580838984203D1D0
:103AB40061E09B68984204D05A6822F003028A426B
:103AC400F7D8D868C5E902308560DD603046BDE8C6
:103AD400F84000F0BBB97047114407F1080C836843
:103AE40063453FD0C268DA60936041F001036B60C4
:103AF4006950A7E7002B5FD10A44D0E90213CB60D9
:103B0400996042F001036B60AA50B0E70A44D907F8
:103B140007D454F8083CED1A1A44D5E90213CB60D3
:103B2400996042F001036B60274BBD601B689342B0
:103B34009DD8264B30461968FFF7F2FE97E71144EB
:103B4400CDE7142B08D9542B1DD80B0B03F16F00B0
:103B540003F16E02C300A6E703F15C0003F15B020C
:103B6400C300A0E741F00103C7E90455C5E902CC4D
:103B74006B6069507BE779689210012404FA02F2C1
:103B84000A437A609EE7B3F5AA7F06D8CB0B03F10C
:103B9400780003F17702C30085E740F25452934260
:103BA40006D88B0C03F17D0003F17C02C3007AE795
:103BB4004FF47E737E2276E741F001036B6001606F
:103BC40055E700BFA8020020B4060020A409002085
:103BD4002DE9F04F294F83B03E6801905EB38B46C8
:103BE4004FF000094FF001087468651E23D40134B6
:103BF40006EB8404BBF1000F20D173682268013BFB
:103C0400AB420CBF7560C4F800907AB1D6F8881145
:103C1400D6F804A008FA05FC1CEA010F1AD1904753
:103C240071683A68514522D1B24220D1013D6B1CE2
:103C3400A4F10404DED103B0BDE8F08FD4F8003160
:103C44005B45DAD0013D6A1CA4F10404F6D103B04B
:103C5400BDE8F08FD6F88C31D4F880101CEA030F3D
:103C640009D10198904771683A685145DCD0002A1F
:103C7400E1D01646B8E708469047D1E7D4060020BD
:103C8400024B13B10248FDF757BA70470000000019
:103C940091110000844641EA000313F003036DD13F
:103CA400403A41D351F8043B40F8043B51F8043BFB
:103CB40040F8043B51F8043B40F8043B51F8043B02
:103CC40040F8043B51F8043B40F8043B51F8043BF2
:103CD40040F8043B51F8043B40F8043B51F8043BE2
:103CE40040F8043B51F8043B40F8043B51F8043BD2
:103CF40040F8043B51F8043B40F8043B51F8043BC2
:103D040040F8043B51F8043B40F8043B51F8043BB1
:103D140040F8043B51F8043B40F8043B51F8043BA1
:103D240040F8043B403ABDD2303211D351F8043B41
:103D340040F8043B51F8043B40F8043B51F8043B81
:103D440040F8043B51F8043B40F8043B103AEDD2F0
:103D54000C3205D351F8043B40F8043B043AF9D241
:103D6400043208D0D2071CBF11F8013B00F8013B14
:103D740001D30B8803806046704700BF082A13D321
:103D84008B078DD010F003038AD0C3F10403D21A39
:103D9400DB071CBF11F8013B00F8013B80D331F86D
:103DA400023B20F8023B7BE7043AD9D3013A11F8ED
:103DB400013B00F8013BF9D20B7803704B78437058
:103DC4008B78837060467047082802D14FF4805086
:103DD400704708B501F044F8162303604FF0FF3034
:103DE40008BD00BF70B4164D2C681CB365681F2D48
:103DF40023DC38B9AB1C0135656044F8231000207E
:103E040070BC704704EB850C0228CCF88820D4F8E9
:103E140088614FF0010202FA05F246EA0206C4F88C
:103E24008861CCF80831E5D1D4F88C311343C4F857
:103E34008C31DFE7034C2C60D8E74FF0FF30DFE72D
:103E4400D4060020D8060020704700BF704700BF8A
:103E540000207047024A0349034800F017BF00BF1F
:103E6400300100208D540000100000200C4B4168EC
:103E7400994210B5044601D001F006FBA168094B34
:103E8400994202D0204601F0FFFAE168064B9942BC
:103E940004D02046BDE8104001F0F6BA10BD00BFC2
:103EA40068080020D008002038090020002070474E
:103EB4002DE9F8432A4C2B49DFF8AC90DFF8AC80AD
:103EC4002B4FC4F83811002504230822294604F195
:103ED4005C00284EE360C4E90055C4E90455A560BC
:103EE4006566A561FDF7A0F8234B636708222946A0
:103EF40004F1C400C4E90749C4E90987C4E91A55AF
:103F0400C4E91E552567C4F8CC50C4F88050E66255
:103F1400FDF78AF8194BC4F8DC30294604F168032C
:103F2400082204F59670C4F88430C4E92298C4E9E0
:103F34002476C4E93455C4E93855C4F8D850C4F8D3
:103F44003451C4F8E850FDF76FF804F1D003C4E924
:103F54003C98C4E93E76C4F8EC30BDE8F88300BF71
:103F640068080020593E00004D55000075550000BA
:103F7400B5550000D95500000900010012000200E7
:103F8400F8B5254BD3F838310646002B3CD0234FE7
:103F9400D7E90134013B04D51DE05A1C04F168043F
:103FA40019D0B4F90C50013B002DF6D11C4BE36041
:103FB400C4E90155C4E9045565662560A561082274
:103FC400294604F15C00FDF72FF8C4E90C55C4E957
:103FD40011552046F8BD3D680DB12F46D8E74FF482
:103FE400D671304600F0A2FF044680B10423C0E934
:103FF40000530C302946A0604FF4D0722546FDF7DB
:1040040013F83C602F46C3E7FFF752FFBFE70C23CA
:1040140038603360DDE700BF68080020300100200D
:104024000100FFFF436B03B17047044B044AD3F80C
:1040340038314263002BF7D13AE700BF680800200B
:10404400713E0000704700BF704700BF024A034939
:10405400002000F01BBE00BF30010020553E0000D0
:10406400024A0349002000F011BE00BF30010020C5
:10407400B13E000038B5074D0022044608462A60C8
:1040840003F08AFA431C00D038BD2B68002BFBD008
:10409400236038BDD80900200000000000000000A3
:1040A400000000000000000000000000000000000C
:1040B40000000000000000000000000030B490F890
:1040C40000F020F007016FF0000C10F0070491F8E5
:1040D40020F040F048804FF000046FF00700D1E971
:1040E400002391F840F000F1080082FA4CF2A4FA9F
:1040F4008CF283FA4CF3A2FA8CF34BBBD1E9022382
:1041040082FA4CF200F10800A4FA8CF283FA4CF320
:10411400A2FA8CF3E3B9D1E9042382FA4CF200F158
:104124000800A4FA8CF283FA4CF3A2FA8CF37BB95C
:10413400D1E9062301F1200182FA4CF200F10800D2
:10414400A4FA8CF283FA4CF3A2FA8CF3002BC6D0B7
:10415400002A04BF04301A4612BAB2FA82F200EB03
:10416400D20030BC7047D1E9002304F00305C4F148
:1041740000004FEAC50514F0040F91F840F00CFA62
:1041840005F562EA05021CBF63EA050362464FF0C7
:104194000004AAE7936810B514461BB91846002317
:1041A400636010BD01F058FA0023A360002363602C
:1041B40010BD00BF00B50B4C25681446EE681A46C6
:1041C40085B003460D464CB107490095CDE901146D
:1041D4003046064900F096FE00F048FE04490C46BD
:1041E400F3E700BF08000020A0020000B0020000B6
:1041F400AC02000008B513460022FFF7DBFF00BF46
:10420400436C70B505460C464BB153F8240080B19D
:10421400026843F824200023C0E9033370BD21223F
:10422400042100F02BFE034668640028EDD1002031
:1042340070BD012101FA04F6721D9200284600F0B7
:104244001DFE0028F3D0C0E90146E4E731B1436C18
:104254004A6853F82200086043F82210704700BFF0
:104264002DE9F0410D6907460E461C4601F1140E76
:104274000020DEF800108BB202FB03434FEA134C1C
:10428400090C02FB01CC01309BB203EB0C438542C9
:104294004EF8043B4FEA1C44EBDC3CB1B368AB4240
:1042A40007DD06EB850301355C6135613046BDE809
:1042B400F081716838460131FFF7A2FF8046A8B14A
:1042C4003269023206F10C0192000C30FFF7E2FC75
:1042D4007B6C726853F82210316043F822604646C2
:1042E40006EB850301355C613561DFE7024B03486A
:1042F4004246BA21FFF75EFF60020000E0020000C0
:104304002DE9F8431746284A1E4608330C46092E61
:1043140082FB03124FEAE3730546C3EB62033ADD03
:104324004FF0010C00214FEA4C0C634501F10101EF
:10433400F9DC2846FFF764FF014670B3089B43612C
:10434400092F4FF00103036112DC0A340927BE422E
:104354000BDDF61B264414F8013B0A22303B2846A9
:10436400FFF77EFFB4420146F5D10846BDE8F88365
:1043740004F1090804EB0709444614F8013B0A2236
:10438400303B2846FFF76CFF4C450146F5D1A7F1B9
:1043940008044444DBE70021CBE70A46034B044806
:1043A400D321FFF707FF00BF398EE3386002000016
:1043B400E0020000B0F5803F034636BF030400204E
:1043C4001020B3F1807F3CBF1B020830B3F1805F43
:1043D4003CBF1B010430B3F1804F03D3002B06DB39
:1043E400013070479B0003D45B0003D42020704746
:1043F4000230704703307047036813F00702014628
:1044040007D0DA071FD4980721D55B080B60012079
:10441400704798B2A0B11046DAB20AB908301B0A44
:104424001A0704BF1B0904309A0704BF9B08023013
:10443400DA0703D45B0800F1010006D00B60704773
:104444001B0C1020E8E700207047202070479B08D1
:104454000B600220704700BF38B5436C04460D461C
:104464004BB15868B0B102685A6000220123C0E918
:104474000323456138BD2122042100F0FFFC0346DB
:1044840060640028EDD1094B0948002240F245112F
:10449400FFF790FE1C220121204600F0EFFC0028CB
:1044A400F1D001220223C0E90123DEE7600200000B
:1044B400E00200002DE9F04FD1F810801569A845FD
:1044C40085B00E46924605DB2A46534645468A4643
:1044D40090461E46DAF80830DAF8041005EB0804B2
:1044E400A342B8BF0131FFF78BFE8446002800F0D9
:1044F4008B8000F1140707EB840E774505D23B4609
:10450400002243F8042B9E45FBD8143606EB88089A
:104514000AF11409464509EB850566D2A5EB0A03A1
:10452400153B23F003030AF1150A043355452CBF48
:104534009B464FF0040BCDF808E00394AE46E246E8
:1045440005E0090C2AD1B04507F104074AD956F809
:10455400041B8DB2002DF4D0CC463C4600230196BA
:104564005CF8040B216886B28AB2000C05FB0622B3
:10457400090C1A4405FB001101EB124192B242EA04
:104584000142E64544F8042B4FEA1143E8D8019E62
:1045940047F80B3056F8041C090CD4D03B680022B1
:1045A40048461D463C469446028801FB02C202EB83
:1045B40015429BB243EA024344F8043B50F8043BDF
:1045C40025684FEA134CABB201FB0C3303EB1243E7
:1045D40070454FEA134CE7D3B04547F80B3007F169
:1045E4000407B4D8DDE902E4D446002C02DC05E07B
:1045F400013C03D05EF8043D002BF9D06046CCF8B2
:10460400104005B0BDE8F08F034B044862464FF4F8
:10461400B171FFF7CFFD00BF60020000E0020000AF
:1046240012F003032DE9F041144607462CD10D4640
:10463400A4101CD03E6C86B3E3074FF0000806D4E8
:10464400641014D03068A8B10646E307F8D53246A2
:1046540029463846FFF72EFF35B17B6C696853F85D
:1046640021202A6043F8215064100546EAD12846E7
:10467400BDE8F081324631463846FFF71BFF306013
:10468400C0F800800646E0E7013B0F4A52F82320B9
:104694000023FFF7E5FD0546CAE701213846FFF789
:1046A400AFFD064640B1012340F27122C0E9043255
:1046B400002338640360BFE7044B0548324640F2E8
:1046C4004511FFF777FD00BF4003000060020000C2
:1046D400E00200002DE9F0470C4690462769A368E4
:1046E400496807EB62177D1C9D4206464FEA621932
:1046F40004DD5B009D4201F10101FADC3046FFF765
:104704007FFD8446002851D0B9F1000F00F1140058
:104714000EDD09F105024FEA820E03460CEB82021C
:10472400002143F8041B9342FBD1AEF11403184457
:10473400216904F1140318F01F0803EB81012DD043
:10474400C8F1200986464FF0000A1A6802FA08F2F6
:1047540042EA0A024EF8042B53F8042B994222FA37
:1047640009FAF2D80B1B153B23F00303043304F1BD
:104774001502914238BF042340F803A0BAF1000F98
:1047840000D13D46736C6268CCF8105053F8221087
:104794002160604643F82240BDE8F087043853F8AE
:1047A400042B40F8042F9942F9D8EAE7034B044854
:1047B40062464FF4EF71FFF7FDFC00BF600200009A
:1047C400E00200000B6984460069C01A15D10CF19F
:1047D400140C14310CEB830210B401EB830301E0DD
:1047E400944508D252F8044D53F8041D8C42F7D076
:1047F40004D24FF0FF3010BC70477047012010BC4A
:10480400704700BF2DE9F04F15460A692B69D21A8B
:10481400002A83B0884640F0878001F1140605F130
:10482400140101EB830106EB830301E09E427ED277
:1048340053F8044D51F8042D9442F7D075D32B4608
:104844000024454698466968FFF7DAFC814600284B
:1048540000F089802E69C460D8F8100005F1140BAB
:1048640008F1140E09F1140A05F110020EEB800090
:104874000BEB860157464FF0000CCDF804B05EF800
:10488400044B52F8045F1FFA84FBABB2A3EB0B0397
:10489400240C6344C4EB154404EB23449BB243EA65
:1048A4000443704547F8043B4FEA244CE7D8A0EB97
:1048B400080208F115084045A2F1150234BF002092
:1048C400012092080028DDF804B002F101044FEA47
:1048D400840408BF04240BEB0405A942544433D9CF
:1048E4002746284650F8043B1CFA83FE1A0C6344FE
:1048F40002EB2E429BB243EA0243814247F8043B57
:104904004FEA224CEED80139491B21F003010C4433
:1049140023B954F8043D013E002BFAD04846C9F8A7
:10492400106003B0BDE8F08F89DA01248BE7002121
:10493400FFF766FC814678B101220023C0E9042315
:10494400484603B0BDE8F08F00284FEA820208BF52
:1049540000220AEB0204DBE7064B07484A4640F212
:104964003721FFF727FC034B03484A4640F2452111
:10497400FFF720FC60020000E0020000114B0B4036
:10498400A3F15073002B03DD002219461046704733
:104994005B42B3F1A07F4FEA235206DA4FF40023BF
:1049A40013410022194610467047A2F114031E2B2E
:1049B400DABF4FF00042DA400122002319461046C4
:1049C400704700BF0000F07F02692DE9F04100F15B
:1049D400140707EB8202A2F1040852F8046C304673
:1049E400FFF7E8FCC0F120030A280B6033DD4745DC
:1049F400A0F10B0119D252F8083C21B3C1F12000F7
:104A04008E4023FA00F426438B40A2F1080146F0BD
:104A14007F558F4245F4401519D252F80C2CC240F0
:104A2400134318462946BDE8F0810B280AD006FA3C
:104A340001F141F07F5545F44015002318462946FD
:104A4400BDE8F081002346F07F5545F44015184633
:104A54002946BDE8F081474538BF52F8082CC0F11B
:104A64000B0326FA03F138BFDA4000F1150341F0D5
:104A74007F5528BF002206FA03F345F4401513437B
:104A840018462946BDE8F081F0B5012183B01646E9
:104A94001F46FFF7B5FB0546002847D0C7F30A5465
:104AA400C7F313030CB143F48013002E019314D104
:104AB40001A8FFF7A1FC019B6B61012220302A6150
:104AC40014B3089BA4F2334404441C60099BC0F152
:104AD40035001860284603B0F0BD68460096FFF71D
:104AE4008BFC019B00B30099C0F1200203FA02F28F
:104AF400C34001930A43002BC5E905230CBF0122DF
:104B040002222A61002CDCD105EB8201A0F232439F
:104B1400086908990B60FFF74DFC099BC0EB421034
:104B24001860284603B0F0BD009AE4E7034B04483C
:104B34002A4640F20F31FFF73DFB00BF6002000040
:104B4400E00200002DE9F04383B0884669468146BF
:104B5400FFF73AFF04460D46404601A9FFF734FF2C
:104B6400D9F81030D8F81020A3EB020CDDE900329C
:104B74009B1A03EB4C13002B0BDD05EB03573D464F
:104B840002460B462046294602F020FB03B0BDE84E
:104B9400F083C3EB033301EB03594946F0E700BF4D
:104BA400172870B506460ADD0849094D002000247F
:104BB40022462B4602F0E0F9013EF9D170BD054BC7
:104BC40003EBC003D3E9040170BD00BF0000F03F54
:104BD40000002440400300000139491101F1010C97
:104BE400116902F1140303EB81018B4200EB8C0C7D
:104BF40016D210B5A0F1040E53F8044B4EF8044F2E
:104C04009942F9D88B1A153B23F003030433184453
:104C1400844504D9002340F8043B8445FBD810BDE7
:104C2400844505D9002340F8043B8445FBD87047EC
:104C3400704700BF03694A11934200F1140009DA76
:104C440000EB830302E053F8042DA2B98342FAD89F
:104C54000020704700EB8203F8DD11F01F01F5D04E
:104C640010B450F8224024FA01F28A40944208D049
:104C7400012010BC70470120704753F8042D002A0E
:104C8400F6D18342F9D8002010BC70472DE9F843CF
:104C94000746884616464FF00009D6E90154013DFF
:104CA40010D4A389012B08D9B4F90E30013321465D
:104CB400384602D0C04749EA0009013D6B1C04F1A3
:104CC4006804EED13668002EE7D14846BDE8F88383
:104CD400F0307047004870472C02002000487047AD
:104CE4002C0200202DE9F041B1F90C300C46990753
:104CF40096B008D504F143030122C4E904322360C9
:104D040016B0BDE8F081B4F90E100029064626DB82
:104D14006A4600F079FC00281FDB019D05F470450C
:104D2400A5F50055B5FA85F54FF480686D094FF483
:104D340000674146304600F0F9F8E8B1B4F90C30A8
:104D4400C4F8148043F0800320602061A3813DBB3C
:104D54003B43A38116B0BDE8F081B4F90C3013F0E5
:104D6400800519D04FF040080025414630462F46B3
:104D740000F0DCF80028E1D1B4F90C309A05BFD476
:104D840023F0030304F1430243F002030121C4E9C5
:104D94000421A3812260B3E74FF480682F46C8E75B
:104DA400B4F90E10304600F045FC10B9B4F90C30DB
:104DB400CEE7A38923F0030343F001031BB2C7E743
:104DC40070B50C46B1F90E10002996B015461E4672
:104DD40014DB6A4600F018FC00280FDB019901F48B
:104DE4007041A1F50051B1FA81F14FF48063490992
:104DF4004FF4006031602B6016B070BDA18911F0D2
:104E0400800106D000214023084631602B6016B093
:104E140070BD4FF48063084631602B6016B070BDDE
:104E240010B4034CD4F8E440A44610BC604700BF5F
:104E34003C01002082B049B15AB16BB113780B60C8
:104E44001278101E18BF012002B0704701A9002A71
:104E5400F3D1104602B070476FF00100F4E700BFD1
:104E6400014B1868704700BF0800002008B50620F1
:104E740000F01CFE012002F0A5FB00BF38B5A1FB29
:104E8400021454BB00F052F8054650B350F8042CF9
:104E940022F00302043A242A10D8132A13D91B2A15
:104EA400C0E9004416D9242AC0E902440ABFC0E973
:104EB400044400F1100200F1180205E02146FCF759
:104EC400B3F8284638BD02460023C2E90033936094
:104ED400284638BD00F10802F6E7FFF7C1FF0C23AE
:104EE40003600025284638BD0CB400B583B004AB7C
:104EF40053F8042B019300F015FF03B05DF804EBA5
:104F040002B070470EB410B583B005AB064C53F82D
:104F1400042B01930146206800F004FF03B0BDE8B0
:104F2400104003B0704700BF080000202DE9F04F87
:104F340001F10B05162D83B0064623D8102900F283
:104F4400AF80FEF781FF102518230220C14F3B4498
:104F5400A3F108025C68944200F025816368E2686A
:104F6400A16823F00303CA602344304691605A6861
:104F740042F001025A60FEF769FF0834204603B08C
:104F8400BDE8F08F35F0070500F18A80A94200F2F0
:104F94008780FEF759FFB5F5FC7FC0F06D816B0A81
:104FA40000F08280042B00F22481AB0903F1390064
:104FB40003F1380EC300A74F3B44A3F1080C5C680F
:104FC400A44507D10DE0002AE16880F2E6808C4513
:104FD40007D00C46636823F003035A1B0F2AF2DD43
:104FE4007046DFF874823C69444500F0C38063680E
:104FF40023F0030CACEB05030F2B00F34181002BD2
:10500400C7E9048880F22C81BCF5007FD7F804E05E
:1050140080F0CF804FEADC0101314FEA5C1C0123B0
:1050240003FA0CF357F83120A2604EEA030E07EBA3
:10503400C103083BE360C7F804E047F83140D4609B
:1050440083104FF0010C0CFA03FCF44532D81CEA2F
:105054000E0F08D120F003004FEA4C0C1CEA0E0F8F
:1050640000F10400F8D007EBC00AD6468146DEF80A
:105074000C300BE0596821F003014A1B0F2A1C462F
:10508400DB6800F3C280002A80F2D6809E45F1D10D
:1050940009F1010919F0030F0EF1080EE7D118E127
:1050A4000C233360002469E74FF4007340204FF071
:1050B4003F0E80E7BC68636823F00309A94503D366
:1050C400A9EB05030F2B58DCDFF890B1DBF80020C7
:1050D40004EB09031032082002EB05080093FEF7E5
:1050E40073FED7F808140131024605D008F1FF38E1
:1050F4008044414201EA0808414630460092FEF7E6
:10510400B9FFB0F1FF3F009A824600F0D48004EB6F
:105114000903834200F2CD80DBF804104144CBF84C
:105124000410084602F1FF3C40F0F5801AEA0C0F27
:1051340040F0F180D7F808A0C84448F00100CAF84C
:105144000400DBF82C208A42DBF8302038BFCBF88F
:105154002C108A4238BFCBF83010544620F0030894
:10516400A845A8EB050301D30F2B06DC3046FEF758
:105174006DFE97E7D7F804E062E7621943F0010394
:1051840045F0010565603046BA605360FEF75EFE87
:105194000834204603B0BDE8F08FA2682344D160F0
:1051A40030468A60E3E6DC68A3427FF4D7AE02307F
:1051B40017E7BCF5206F4FEA5C2273D3142A00F280
:1051C4000A8102F15C03DB005B32F918FB580839F1
:1051D400994203D1E6E09B68994204D05A6822F0D0
:1051E40003026245F7D8D968C4E902318C60DC60F7
:1051F40026E7142B62D9542B00F2F6802B0B03F113
:105204006F0003F16E0EC300D5E6D4F808C0304633
:10521400661945F001056560CCF80C30C3F808C088
:1052240042F00103C7E90466C6E90288736062506C
:10523400FEF70CFE0834A1E6214430464A6842F0E9
:1052440001024A6054F8082FD3609A60FEF7FEFD0D
:1052540094E600BFA8020020B0020020A4090020A8
:10526400A4443046DCF8043043F00103CCF80430A5
:10527400FEF7ECFD083481E6E80805F1080365E66D
:10528400621943F0010145F0010565603046C7E944
:105294000422C2E90288516044F80C30FEF7D6FDBE
:1052A40008346BE64FEA9C1202F13903DB00383212
:1052B4008BE7BC4228D0BC6860684FE703F15C0010
:1052C40003F15B0EC30076E65AF80839534540F003
:1052D400D88010F0030F00F1FF30F5D17B6823EA8A
:1052E4000C037B604FEA4C0C9C453FF6E3AEBCF1EB
:1052F400000F04D1DEE64FEA4C0C09F104091CEA64
:10530400030FF8D04846AEE6DBF804004044CBF87F
:10531400040002F1FF3CD7F8081401316ED004EB0D
:105324000903AAEB03031844CBF804001AF007039B
:10533400009341D0C3F108018A44D0440A4408EAE6
:105344000C01521A02EA0C0130460191FEF792FE5A
:10535400421C6FD00199A0EB0A0000EB0108DBF8B6
:105364000420C7F808A048F001001144BC42CAF860
:105374000400CBF804103FF4E4AEB9F10F0F40D9A8
:105384006268A9F10C0020F0070002F00102024358
:105394006260052322180F28C2E9013352D8DAF8D3
:1053A4000400CEE692104FF0010C0CFA02F24EEA21
:1053B400020EC7F804E017E70AEB080101EA0C0142
:1053C400521A02EA0C0130460191FEF753FE431CC7
:1053D400C0D10099C3E7542A17D84FEA1C3202F10E
:1053E4006F03DB006E32F0E6B3F5AA7F17D8EB0B40
:1053F40003F1780003F1770EC300DCE5C7F808A4D5
:1054040094E70123CAF80430B0E6B2F5AA7F23D8A2
:105414004FEADC3202F17803DB007732D5E640F262
:105424005452934223D8AB0C03F17D0003F17C0E5C
:10543400C300C0E5009BA3F108029044A8EB0A084E
:1054440000218CE704F108013046FEF7C5FADBF8C9
:105454000410D7F808A0A2E740F254539A420CD89B
:105464004FEA9C4202F17D03DB007C32ADE64FF44F
:105474007E737F204FF07E0E9DE54FF47E737E2277
:10548400A3E67B682EE700BF70B539B106460C462B
:1054940008B1436B83B3B4F90C3013B90025284623
:1054A40070BD21463046FDF731F9E36A054633B154
:1054B400E169304698470028B8BF4FF0FF35A3890B
:1054C4001B061CD4216B41B104F14003994202D064
:1054D4003046FEF781FA00232363616C21B1304624
:1054E400FEF77AFA00236364FEF7ACFD0023A38180
:1054F400FEF7AAFD284670BDFEF794FDCBE72169AF
:105504003046FEF769FADDE7024B01461868FFF7FB
:10551400BBBF00BF0800002010B4034CD4F8E04027
:10552400A44610BC604700BF3C01002049B1FF2ADB
:1055340002D80A70012070478A2303604FF0FF30BD
:1055440070470846704700BF10B50C46B1F90E10FD
:1055540001F088F9002803DB236D0344236510BDA3
:10556400A38923F48053A38110BD00BF002070479A
:105574002DE9F0410C46B1F90C101F46CB05054648
:1055840016460BD421F48051A1813B46B4F90E1088
:1055940032462846BDE8F04100F020B8B4F90E10B8
:1055A4000223002201F074F9B4F90C10EAE700BFF9
:1055B40010B50C46B1F90E1001F06AF9B4F90C30CB
:1055C400421C0EBF23F4805343F480532065A3810F
:1055D40010BD00BFB1F90E1000F0BAB938B50C46D1
:1055E400084D8446114620461A4600232B60644623
:1055F40001F0E0FF431C00D038BD2B68002BFBD02A
:10560400236038BDD809002070B50C46084D034608
:105614000026204611461C462E6001F08DFF431CD7
:1056240000D070BD2B68002BFBD0236070BD00BF81
:10563400D809002038B5074D0022044608462A60E0
:1056440001F08AFF431C00D038BD2B68002BFBD02F
:10565400236038BDD80900209368002B00F0F68041
:105664002DE9F04FB1F90CC01CF0080F83B090463F
:1056740081460C4631D00B697BB31CF00207D8F885
:10568400006038D00027D4F824B0E169DFF8BCA268
:105694003D4655452B463A4628BF53464846C5B174
:1056A400D847002840F3C880D8F808301B1A0744AC
:1056B4002D1AC8F80830002B00F0B48055452B464D
:1056C400D4F824B0E16928BF53463A464846002D31
:1056D400E6D1D6E900750836DBE721464846FEF7F1
:1056E400BDF8002840F0AD80B4F90CC0D8F80060D3
:1056F4001CF00207C6D11CF0010A63D12368A1681B
:10570400574618468B46002F58D01CF4007F00F0F3
:10571400B180B9420A4600F2DD801CF4906F2FD0AC
:10572400216962695D1A02EB420202EBD2726B1CC0
:1057340052103B44934292BF93469B461A461CF434
:10574400806F00F0E68011464846FFF7EFFB002823
:1057540000F0F5802A4621690190FEF79BFAA289A0
:10576400019B22F4906242F08002A2815819ABEBB3
:105774000505C4F814B02361A5602060BB463A4611
:105784005146019200F04EFAA1682368019AA1EBF8
:105794000B011A443D46A16022600027D8F8083066
:1057A4005B1BAA44C8F80830002B3BD02368A168CF
:1057B400B4F90CC018468B46002FA6D1D6E900A731
:1057C40008369EE73846BB463D46002D40D00028AB
:1057D40045D03A46D4E904C32068A168AA4228BF48
:1057E4002A46604504D901EB030A524500F382803E
:1057F400934272DCE169D4F824C05A464846E04733
:10580400B0F1000A18DDB7EB0A070FD00120D8F871
:105814000830A3EB0A03D344A5EB0A05C8F8083003
:10582400002BD2D1002003B0BDE8F08F21464846BA
:10583400FDF700F80028EAD0B4F90C3043F0400337
:10584400A3814FF0FF3003B0BDE8F08F0020704714
:10585400756833460836002DFAD0D3F800B02A46CE
:105864000A215846FCF702FF002865D00130A0EB5E
:105874000B07AEE722699A4214D36269BA4211D87F
:105884006FF00043BB4228BF3B46656A93FBF2F3CB
:10589400E16902FB03F348465246A847051ECBDDE7
:1058A4007F1B7BE7B94228BF39460D4618460A4696
:1058B400514600F0B7F9A1682368491B2B44A16045
:1058C40023600029ECD121464846FCF7B3FF0028A9
:1058D400E6D0B1E7BB463A4652E75946019200F09A
:1058E400A1F9019AA3689B1AA36023681344236057
:1058F400924688E75946524600F094F92368534487
:10590400236021464846FCF795FF00283FF47BAF0F
:1059140092E7484600F0D2FF034600287FF426AF02
:1059240021694846FEF758F8B4F90C300C22C9F83E
:10593400002023F0800381E76A1C17464AE70C2203
:10594400B4F90C30C9F8002078E700BF00FCFF7FF1
:1059540038B5074D0022044608462A6001F0E4FDEC
:10596400431C00D038BD2B68002BFBD0236038BD0E
:10597400D809002038B5D0F818410CB1002038BD42
:1059840080210546FFF7D2FA0246C5F8180130B166
:10599400031F7C3243F8044F9342FBD1EEE74FF0F0
:1059A400FF3038BD30B51F2983B0054609D8D0F87B
:1059B40018310C4653B153F8240043F8242003B0A3
:1059C40030BD162303604FF0FF30F8E780210192C9
:1059D400FFF7ACFA019AC5F8180103460028F2D083
:1059E400011F00F17C05002041F8040FA942FBD1FE
:1059F400E1E700BF1F2938B505461FD8D0F81821A4
:105A04000C466AB152F8213053B1012B06D0591C0F
:105A140010D0002142F8241020469847002038BDB9
:105A2400284600F0FDF8224601462846BDE83840E5
:105A340000F0E0B816230360012038BD162303608C
:105A44004FF0FF3038BD00BF1F292CD838B5D0F82F
:105A540018310C460546A3B153F8242003EB840304
:105A64004AB1511C0BD0012A07D0002520461D60E5
:105A74009047284638BD012038BD032038BD022098
:105A840038BD8021FFF752FA0346C5F8180138B132
:105A9400021F00217C3042F8041F8242FBD1DBE765
:105AA4004FF0FF3038BD4FF0FF30704738B5144B1E
:105AB4001F281D681ED8D5F81821044662B152F873
:105AC40020304BB1012B05D0591C0FD0002142F8D6
:105AD40020109847002038BD284600F0A1F822463F
